:020000040800F2
:10000000D8FA0020150400081D0400081F04000889
:100010002104000823040008250400080000000053
:10002000000000000000000000000000270400089D
:1000300029040008000000002B040008C70600087F
:100040002F0400082F0400082F0400082F040008C4
:100050002F0400082F0400082F0400082F040008B4
:100060002F0400082F0400082F0400082F040008A4
:10007000FBE600082F0400082F0400082F040008E6
:100080002F0400082F040008D90600082F040008D8
:100090000F5B01082F0400082F040008A5110008B9
:1000A0002F0400082F0400082F0400082F04000864
:1000B0009F0B00082F040008EB0A00082F0400081B
:1000C0002F0400082F0400082F0400082F04000844
:1000D0002F0400082F0400082F04000831E700084F
:1000E0002F0400082F0400082F0400082F04000824
:1000F0002F0400082F0400082F0400082F04000814
:100100002F0400082F0400082F040008410F0008E6
:100110002F0400082F0400082F0400082F040008F3
:100120002F0400082F0400082F0400082F040008E3
:100130002F0400082F0400082F0400082F040008D3
:100140002F0400082F0400082F0400082F040008C3
:100150002F0400082F0400082F0400082F040008B3
:100160002F0400082F0400082F0400082F040008A3
:100170002F0400082F0400082F0400082F04000893
:100180002F0400082F0400082F0400082F04000883
:100190002F0400082F040008DFF810D016F060FBD1
:1001A00000480047B1010008AFF30080D8FA0020F2
:1001B00008B500F06CFA05F019F98548B0F90000AF
:1001C0008449B1F90010884203D005F04BFB05F0DB
:1001D0000DF94FF4FA7000F06AFF01F0ABF800205F
:1001E00000907B48B0F8A400642210FB02F378482A
:1001F00090F8A210032200200DF0FBFF15F04CFB3D
:100200000020754948860220A1F85C000EF081F8B4
:10021000DDE07248408BB0B10020704948837048DF
:100220000088401C00B26E4908800846B0F9000002
:10023000B0F57A7F07DB002008806A480088401C00
:1002400000B2684908806548C08BA8B100206349A6
:10025000C88365480088401C00B26349088008468E
:10026000B0F90000642807DB002008805F480088A0
:10027000401C00B25D4908805848008CA8B100209D
:10028000564908845A480088401C00B258490880E2
:100290000846B0F90000282807DB002008805548F0
:1002A0000088401C00B2534908804C48408CF0B193
:1002B00000204A49488450480088401C00B24E49FA
:1002C00008800846B0F90000142807DB00200880E9
:1002D0004A480088401C00B24849088048480FF04E
:1002E00040FD15F043FB04F0E3FF04F01CFF3B4826
:1002F000808C58B300203949888404F0F5FF05F05C
:100300004AF806F0F4FA3448B0F85C00022801D14B
:1003100008F00AF93048B0F85C00012801D107F074
:10032000ADFE06F03AFB37480088401C00B2354964
:1003300008800846B0F900000A2807DB0020088082
:1003400031480088401C00B22F4908802348008DA6
:1003500058B300202149088506F08FFB1E48B0F8ED
:10036000580028B100201C49A1F8580005F07AFA7D
:100370001948B0F85A0028B100201749A1F85A00CE
:1003800005F05DFF21480088401C00B21F4908802D
:100390000846B0F90000022807DB002008801C484E
:1003A0000088401C00B21A4908800C48408D10B1EA
:1003B00000200A4948850948808D10B1002007496E
:1003C00088850648C08D10B100200449C88520E703
:1003D0009A170020040000206418002068170020ED
:1003E000A0050020A2050020A4050020A6050020ED
:1003F000A8050020AA050020AC050020AE050020BD
:1004000000000020B0050020B2050020B405002047
:10041000B60500200648804706480047FEE7FEE78D
:10042000FEE7FEE7FEE7FEE7FEE7FEE7FEE7FEE7A4
:10043000010500089901000810B5002000210022E4
:100440007C4B1B6843F480337A4C236000BF794BAC
:100450001B68C3F34041521C11B9B2F5004FF6D1ED
:10046000744B1B68C3F3404119B9734B734C236041
:1004700010BD734B1B6823F00303714C23602346AC
:100480001B6843F0040323606A4B5B68694C63603C
:1004900023465B6843F40053636023465B6843F480
:1004A000A063636023465B68664C2340614C6360D5
:1004B0002346586840F4803000BF634B18432346FE
:1004C00058601B6843F08073236000BF594B1B6862
:1004D00003F00073002BF9D0564B5B6823F0030345
:1004E000544C636023465B6843F00203636000BFC3
:1004F000504B5B6803F00C03082BF9D100BFB7E742
:1005000010B55248006840F47000504908604948EE
:10051000006840F0010047490860084640684C49BF
:10052000084044494860084600684A490840414933
:1005300008600846006820F480200860084640688B
:10054000454908403B4948600020C86208634FF4B1
:100550001F0088600846C06940F08050C8613F486D
:10056000C06840F001003D49C8603248C06920F0D1
:1005700080503049C8613248006840F090003049EE
:100580000860FFF759FF4FF000603049803908607C
:1005900010BD10B5002100200022264B5B6803F03F
:1005A0000C0121B1042906D0082932D107E0224BE1
:1005B000224C236031E0204B204C23602DE01D4B6A
:1005C0005B68274C03EA04001A4B5B6803F4803233
:1005D00000F000631BB9022303EB904004E04FF4EA
:1005E000F873C3EB9043581C22B91E4B4343134C82
:1005F00023600DE00F4B5B6803F4003323B1194B0C
:1006000043430E4C236003E00B4B43430B4C2360EE
:1006100003E0094B094C236000BF00BF054B5B683A
:10062000C3F30313104CE15C044B1B68CB40034C39
:10063000236010BD0010024000127A00B8050020AF
:1006400000200240FFFFC0F70000040888ED00E032
:1006500000C0FFF8FFFFF6FEFFFF00F7007000404C
:1006600000003C0800093D001870010810B5012188
:10067000080703F02DF95648C06840F001005449BE
:10068000C86000214FF0805003F022F910BD10B572
:10069000FFF7ECFF00F0BCF872B600F0C7F900F00D
:1006A0000DF900F01FFD00F0A1FA00F08BFB00F047
:1006B000C2FC00F0E0F90DF0A4FF4FF4E1300DF0C2
:1006C00039FF62B610BD10B5424807F059FC07F07B
:1006D000B5FA06F0DBFF10BD10B54FF490613E484F
:1006E00001F0F0F8012838D104213B4801F0E6F888
:1006F0001C21394801F08DF838490880142136480A
:1007000001F087F8354948801821334801F081F815
:10071000324988800846008800B2C0F5006000B207
:100720002F4908802D48408800B2C0F5006000B213
:1007300048802A48808800B2C0F5006000B28880F6
:1007400008468088274908802548408848802448F2
:100750000088888006F0D1FE0AE04FF4A0711E48A0
:1007600001F0B0F8012803D101211B4801F0A6F8DF
:100770004FF490611C4801F0A5F8012810D1042124
:10078000194801F09BF81421174801F042F8134969
:10079000C8801821144801F03CF8104908810AE08B
:1007A0004FF4A071104801F08DF8012803D1012108
:1007B0000D4801F083F810BD10B580210B4804F0FE
:1007C00019FA18B18021094804F025FA10BD00007B
:1007D0000070004068170020000802409832002096
:1007E000C405002064180020000C0240002C0140C9
:1007F00010B5002804DB0A07130EF14A135406E073
:100800000A07140EEF4A00F00F031B1FD45410BD4B
:1008100010B502F051FE4FF4803002F072FE02F08B
:10082000AFFE0446012C26D1002002F0EFFE00208E
:1008300002F0FEFEA00202F0F2FE802002F047F875
:10084000002002F032F8042002F026F8DE492004ED
:1008500002F0BFFE012002F0C8FE00BF392002F006
:1008600073FE0028FAD0022002F0C2FE00BF02F0A0
:10087000C8FE0828FBD1012140F2FD1003F001F869
:100880000121D24802F0B1FC01214FF4405002F0A6
:10089000EBFF042002F021FF0121C80202F0F1FF6A
:1008A0000121C80403F014F8012141F20C0002F008
:1008B000E8FF0121C80303F00BF810BD08B54FF4A1
:1008C000C040ADF8000003208DF8020010208DF824
:1008D00003006946BE4802F0B5FB4FF40051BC4826
:1008E00002F05DFC4FF48041B94802F058FC4FF42F
:1008F0000040ADF8000003208DF8020004208DF8C0
:1009000003006946B24802F09DFB0420ADF80000E8
:100910006946B04802F096FB2020ADF80000694619
:10092000AC4802F08FFBC020ADF8000003208DF82A
:10093000020010208DF803006946A64802F082FBF1
:10094000684602F00AFC4FF4E060ADF800001820A1
:100950008DF8030003208DF8020069469D4802F0DF
:1009600071FB4FF46040ADF8000069469A4802F010
:1009700069FB684602F0F1FB00208DF803000120BE
:10098000ADF800006946934802F05CFB0220ADF828
:10099000000069468F4802F055FB0820ADF80000C2
:1009A00069468C4802F04EFB1020ADF80000694605
:1009B000884802F047FB0220ADF8000069468648EF
:1009C00002F040FB3820ADF8000003208DF8020053
:1009D00018208DF8030069467F4802F033FB4FF47E
:1009E0000040ADF8000010208DF8030003208DF8C2
:1009F00002006946774802F025FB4FF40041754834
:100A000002F0CDFB4FF40070ADF8000010208DF81F
:100A1000030003208DF8020069466F4802F012FBC4
:100A20004FF400716C4802F0BEFB08BD10B54FF4E6
:100A30006154601EB0F1807F00D30FE0601E4FF064
:100A4000E02148610F214FF0FF30FFF7D1FE002079
:100A50004FF0E02188610720086100BF4FF0E020DF
:100A6000006940F004004FF0E02108610221C81E37
:100A7000FFF7BEFE10BD10B586B02324012104206F
:100A800002F026FF02A803F02CFD7D20ADF80C003B
:100A9000ADF808400020ADF80E00ADF80A0002A93C
:100AA0004E4803F079F9012221464C4803F0F5FD48
:100AB00000204A49243108801E208DF804000020BF
:100AC0008DF805008DF8060001208DF8070001A8BB
:100AD00000F05BFC01221146404803F052FD012169
:100AE0003E4803F034FD06B010BD10B501213B486F
:100AF00004F080F8C0B10121384804F08CF838487F
:100B0000008888B93748008870B94FF400413148EF
:100B100002F049FB012000F084FA022031490880EC
:100B20004AF2030000F003FA10BD10B586B00824A5
:100B30000121084602F0CCFE02A803F0D2FC4FF6D9
:100B4000FF70ADF80C00ADF808400020ADF80E00C5
:100B5000ADF80A0002A9E00603F01EF901222146C1
:100B6000900703F09AFD0020E10688841C208DF890
:100B7000040000208DF805008DF8060001208DF896
:100B8000070001A800F001FC01221146900703F0C4
:100B9000F8FC0121880703F0DAFC06B010BD10B59F
:100BA0000121880704F026F840B10121880704F0EC
:100BB00032F80D480068401C0B49086010BD000069
:100BC00000E400E018ED00E000000408000230003E
:100BD0000010014000080140000C014000080040E6
:100BE0009C0500209E050020CC05002010B58EB08D
:100BF000002441F29314714803F06CF80AA803F042
:100C000070FC0020ADF828002020ADF82A00ADF8D7
:100C10002C400020ADF82E008DF830000AA967485E
:100C200003F0BAF806A803F06BFC6020ADF81800DA
:100C30000020ADF81A00ADF81C006010ADF81E00E1
:100C40000020ADF82000ADF82200ADF82400ADF88A
:100C5000260006A9594803F03CF906A9574803F0B5
:100C60006DF906A9554803F0A8F90120ADF81A005E
:100C7000A4F1C80080B2ADF81E0006A94F4803F0E9
:100C8000D7F908214D4803F0A5FD08214B4803F092
:100C9000AAFD0821494803F0B3FD4FF40060ADF808
:100CA00004004010ADF806000020ADF808007220E6
:100CB000ADF80A004FF48050ADF80C004000ADF8DC
:100CC0000E000020ADF810008DF8120001A93B487D
:100CD00003F0DEFB0121394803F039FC01213748DC
:100CE00003F040FC0EB010BD704734492031096854
:100CF00088B24FF6FE7108404FF6EF7108404FF68C
:100D0000FF6108404FF6FB7108404FF6BF71084085
:100D10004FF6FF31084029492031086070472749C4
:100D20002031096888B240F0040040F0400040F4EF
:100D3000806040F0010040F0100040F480701F49D6
:100D4000203108607047014699B91C4A2032126868
:100D500090B240F0040040F0400040F4806040F069
:100D6000010040F0100040F48070144A20321060FE
:100D700012E0012910D1124A126890B240F004002A
:100D800040F0400040F4806040F0010040F010006E
:100D900040F480700A4A1060704700214FF40852F6
:100DA00092FBF0F291B2054A2C32118012881E3A61
:100DB000024B40331A80704770470000002C0140FE
:100DC0002034014000B587B04B4800F03DFB4B4854
:100DD00000F03AFB02A800F08FFB4FF4A020029035
:100DE00001208DF80C0000208DF80D004FF480508C
:100DF0000490002005908DF8180002A93E4800F0EC
:100E000058FB02A93D4800F054FB03213A4800F08A
:100E1000EAFC032301221146374800F09BFC032320
:100E200002221146344800F095FC03231A4604219F
:100E3000314800F08FFC0221304800F0D4FC03233D
:100E4000012211462D4800F085FC03230222194699
:100E50002A4800F07FFC0121274800F05BFC0121BB
:100E6000264800F057FC4FF4A06000F089FA1220E9
:100E70008DF8040002208DF8050001208DF8060091
:100E80008DF8070001A800F080FA01211A4800F04F
:100E90003CFB00BF2021184800F083FD0028F9D05A
:100EA0000121164800F031FB00BF2021134800F05B
:100EB00078FD0028F9D0104800F049FB00BF0E482B
:100EC00000F04AFB0028FAD10C4800F040FB00BFBC
:100ED0000A4800F041FB0028FAD101224FF4B86122
:100EE000054800F028FB01224FF4B861034800F0E8
:100EF00022FB07B000BD000000080240000C0240C9
:100F000070B50446002505E0681C85B2C82D01DDDA
:100F1000002070BD02216D4802F0A5FE0028F3D02C
:100F200021466A4802F04CFE00250020F1E770B52A
:100F3000044600252046FFF7E3FF0546284670BD1E
:100F40002DE9F0470024002500260027A046A146F1
:100F500060215E4802F093FE002860D05C48B0F942
:100F6000000020B101280DD0022857D117E05748C2
:100F700002F028FE0120564908804FF6FF70FFF767
:100F8000D6FF4BE0514802F01DFE52490880022076
:100F90004F4908804FF6FF70FFF7C9FF3EE04B480E
:100FA00002F010FE4B4948800020494908804FF468
:100FB0000041494802F0F3F8464805882C0445886A
:100FC0002C4404F4806008B1012700E0002704F4F9
:100FD000007008B1012600E0002604F4807010B112
:100FE0004FF0010801E04FF0000804F0FF09E40AA7
:100FF00000BF00BF00BF00BF57B94EB9B8F1000F26
:1010000006D147F6FF70A0EB941000B23349088771
:1010100000202F4908803249088000BF00BFBDE88A
:10102000F087052104E000E0401E0028FCD1491EA5
:101030000029F8D1704700B587B033208DF818002B
:1010400002208DF8190001208DF81A008DF81B0080
:1010500006A800F09AF90020ADF804004FF4827061
:10106000ADF806004FF40060ADF808000220ADF8BE
:101070000A000120ADF80C004002ADF80E00182067
:10108000ADF810000020ADF812000720ADF81400F4
:1010900001A90E4802F0BEFC012260210B4802F0BB
:1010A00076FD0121094802F05AFD07B000BD00217C
:1010B000002200BF06E0002200E0521CB2F5E15F12
:1010C000FBD3491C8142F6D370470000003C00402E
:1010D0009C050020D005002000080140D818002001
:1010E0009E0500201FB5012141F20C0002F0C9FB52
:1010F0004FF48050ADF80C0002208DF80E00102047
:101100008DF80F0003A99A4801F09CFF4FF480511D
:10111000974802F048F88020ADF80C0048208DF880
:101120000F0003A9924801F08DFF0721012002F072
:1011300094F98020019000208DF808000C208DF893
:10114000090001208DF80A0001A801F019FB172001
:101150008DF8000002208DF8010001208DF80200BA
:101160008DF80300684600F010F94020ADF80C003F
:1011700010208DF80F0003A97D4801F063FF402186
:101180007B4802F00CF84FF47A70FFF790FF0A20CA
:10119000FFF78DFF4021764802F005F80A20FFF79F
:1011A00086FF1FBD10B5802001F050FB28B18020C4
:1011B00001F05DFB01206F49488610BD00B585B088
:1011C0000020ADF800004FF48270ADF802004FF43B
:1011D0000060ADF804000020ADF806000120ADF875
:1011E00008004002ADF80A003020ADF80C000020E5
:1011F000ADF80E000720ADF8100069465E4802F019
:1012000009FC01215C4802F0AAFC05B000BD70B5E4
:101210000546002407E0601C84B24FF6F07084425B
:1012200001DD002070BD0221534802F01CFD0028A2
:10123000F1D02946504802F0C3FC0320FFF737FFE6
:10124000002407E0601C84B24FF6F070844201DD98
:101250000020E7E70121484802F005FD0028F1D011
:101260000126454802F0AEFC06463046DAE72DE995
:10127000F04105460E4632462946002000F06FF840
:101280000746002210213D4801F08FFF002002E0B8
:1012900000BF411C88B21028FADB3846FFF7B7FFC1
:1012A0000446002002E000BF411C88B21028FADB8F
:1012B00001221021314801F078FF002002E000BF38
:1012C000411C88B21028FADBC4F30A00BDE8F081A3
:1012D0002DE9F04105460E46324629464FF40040BE
:1012E00000F03DF8074600221021244801F05DFF80
:1012F000002002E000BF411C88B21028FADB38460B
:10130000FFF785FF0446002002E000BF411C88B2C1
:101310001028FADB01221021184801F046FF0020B6
:1013200002E000BF411C88B21028FADBC4F30A00B7
:10133000BDE8F08110B5012211030D4801F035FF21
:101340003220FFF7B4FE10BD10B58021084801F02F
:101350000CFF04460CB9002010BD0120FCE730B59D
:10136000034643EA0104C2F30A0544EA050030BD1E
:10137000000C0140641800200030014000080140CA
:101380002C4901432C4A1160704770B5002100239D
:101390000F22C47804B3284C246804F4E064C4F534
:1013A000E064210AC1F10403CA40447804FA03F15D
:1013B0008478144021430901204C0678A155047813
:1013C00004F01F050124AC4005786D11AD0005F156
:1013D000E025C5F8004109E0047804F01F05012468
:1013E000AC40174D0678761145F8264070BD154A79
:1013F0000A400243104B1B1F1A60704739B10E4A56
:10140000121D126802430C4B1B1D1A6006E00A4AAB
:10141000121D12688243084B1B1D1A607047042876
:1014200007D14FF0E021096941F004014FF0E022BB
:10143000116170470000FA050CED00E000E400E0E7
:1014400080E100E080FFFF1F10B50446F8488442A9
:1014500008D10121801402F048FA0021A01402F002
:1014600044FA25E0F348844209D10121480302F0FF
:101470003CFA00214FF4005002F037FA18E0EE4831
:10148000844209D10121880302F02FFA00214FF490
:10149000804002F02AFA0BE0E848844208D101219A
:1014A000C80302F022FA00214FF4004002F01DFAB6
:1014B00010BD30B50246002000235068E04C2040AB
:1014C0000D790C6844EA0524204350609068DD4C97
:1014D0002040D1E902542C434D7944EA450420438D
:1014E0009060D06A20F470000C7C641EE4B2234348
:1014F00040EA0350D06230BD0021016001714171AA
:101500008160C16001210174704721B1826842F09D
:101510000102826003E0826822F00102826070476B
:1015200021B1826842F48072826003E0826822F412
:1015300080728260704710B50023CBB21AB1446844
:101540001C43446002E044689C43446010BD8168D1
:1015500041F0040181607047014600208A6802F072
:1015600004020AB1012000E00020704721B1826826
:1015700042F4A002826003E0826822F4A00282604A
:101580007047014600208A6802F480020AB10120F7
:1015900000E00020704710B50A4600210023416892
:1015A00021F46041531E41EA4331416010BD21B135
:1015B000426842F40062426003E0426822F4006242
:1015C00042607047F0B504461546002000221229FB
:1015D00005D1E06D20F007001843E06520E00929FF
:1015E00011DDE068A1F10A0606EB4607072606FAB8
:1015F00007F29043A1F10A0606EB460603FA06F24B
:101600001043E0600CE0206901EB4107072606FA71
:1016100007F2904301EB410603FA06F21043206102
:10162000072D0FDA606B6E1E06EB86071F2606FA83
:1016300007F290436E1E06EB860601FA06F210438F
:10164000606322E00D2D0FDA206BEE1F06EB86079C
:101650001F2606FA07F29043EE1F06EB860601FAF4
:1016600006F21043206310E0E06AA5F10D0606EBD8
:1016700086071F2606FA07F29043A5F10D0606EB32
:10168000860601FA06F21043E062F0BD21B18268DD
:1016900042F48012826003E0826822F48012826049
:1016A00070470146C86C80B270470146604881426D
:1016B00001D1012000E000205E4A914201D10122C7
:1016C00000E00022104318B159484C3000687047C0
:1016D00059484C300068FAE721B1426842F4806210
:1016E000426003E0426822F480624260704721B1A8
:1016F000426842F48052426003E0426822F4805221
:10170000426070470A460021816821F4E04111439C
:101710008160704721B1826842F40042826003E038
:10172000826822F400428260704721B1826842F4EC
:101730000212826003E0826822F402128260704723
:10174000014600208A6802F400120AB1012000E07C
:1017500000207047F0B50446154600200022002600
:10176000122905D1E06D20F007001843E06520E064
:10177000092911DDE068A1F10A0707EB470C0727EB
:1017800007FA0CF29043A1F10A0707EB470703FAA7
:1017900007F21043E0600CE0206901EB410C0727E1
:1017A00007FA0CF2904301EB410703FA07F21043EA
:1017B0002061A06BC0F30156EF1C06F1010CA7EBF2
:1017C0000C0707EB870C1F2707FA0CF29043EF1C5E
:1017D00006F1010CA7EB0C0707EB870701FA07F2EC
:1017E0001043A063F0BD10B50A4600210023816BB1
:1017F00021F44011531E41EA0351816310BD08B525
:10180000002300930090009B0B440093009B1A6000
:1018100008BD08B5024600200090009201F12800A2
:10182000009B184400900098006880B208BD00003A
:1018300000080240000C024000180240001C024058
:10184000FFFEF0FFFDF7F1FF0A46002141686D4BF6
:1018500019401143416070474162826270470A46F5
:101860000021416821F01F0111434160704768B1B8
:101870006549096841F40001634A116000BF63498A
:10188000096841F48061614A11600DE05E490968B0
:1018900021F400015C4A116000BF5C49096821F431
:1018A00080615A4A116000BF7047024600201368E9
:1018B0000B400BB1012000E00020704702688A4312
:1018C0000260704770B502460020002300240B120E
:1018D0005568CEB205EA060415681D4015B10CB175
:1018E000012000E0002070BD00220A12036893432B
:1018F0000360704710B5024600200B7A23B1D36D08
:1019000043F00803D36503E0D36D23F00803D365E8
:10191000906D0B784BB140F4006000BF3B4B1B68EF
:1019200043F48063394C236009E020F4006000BF79
:10193000364B1B6823F48063344C236000BF4B7824
:1019400013B140F4806001E020F480608B7813B123
:1019500040F4007001E020F40070CB7813B140F443
:10196000807001E020F480704B7913B140F00800E2
:1019700001E020F008008B7913B140F0040001E091
:1019800020F0040020F00300CB79184320F0100071
:101990000B79012B01D140F01000906510BD01655D
:1019A000704702460020936D0B400BB1012000E010
:1019B000002070470A460021816D12B141F080017C
:1019C00001E021F08001816570470A460021816DA8
:1019D00021F0030111438165704770B505460C463F
:1019E00045B900214FF4807001F068FE204601F0F7
:1019F00074FE06E00121204601F060FE002001F0A7
:101A00006CFE70BDFFFD3FFF08080240201800403B
:101A100010B50446FC48844209D10121480601F072
:101A20007EFF00214FF0007001F079FF08E00121F6
:101A3000880601F074FF00214FF0806001F06FFF15
:101A400010BD30B5024600200023146824F00204C3
:101A50001460146844F00104146000E05B1C5468D6
:101A600004F001041CB94FF6FF74A342F6D1546888
:101A700004F001040CB900206CE08C79012C04D135
:101A8000146844F08004146003E0146824F08004B7
:101A90001460CC79012C04D1146844F04004146023
:101AA00003E0146824F0400414600C7A012C04D183
:101AB000146844F02004146003E0146824F0200447
:101AC00014604C7A012C04D1146844F010041460A2
:101AD00003E0146824F0100414608C7A012C04D103
:101AE000146844F00804146003E0146824F0080447
:101AF0001460CC7A012C04D1146844F004041460FE
:101B000003E0146824F0040414608C78A407CD78F2
:101B100044EA05640D7944EA05444D7944EA0554E4
:101B20000D886D1E2C43D461146824F001041460E8
:101B3000002300E05B1C546804F001041CB14FF664
:101B4000FF74A342F6D1546804F001040CB10020E4
:101B500000E0012030BD10B50021837A012202FA95
:101B600003F1AA4A126842F00102A84B1A60A74A80
:101B70001C3212688A43A54B1C331A60027BCAB917
:101B8000A24A0C3212688A43A04B0C331A60428876
:101B9000C38842EA03439D4A4032847A42F8343093
:101BA0000288838842EA0343984A4032847A02EBEF
:101BB000C4025360027B012A19D1944A0C32126884
:101BC0000A43924B0C331A604288038842EA03436B
:101BD0008E4A4032847A42F83430C288838842EA9E
:101BE00003438A4A4032847A02EBC4025360C27AC9
:101BF0003AB9864A121D12688A43844B1B1D1A602B
:101C000006E0824A121D12680A43804B1B1D1A60AF
:101C1000028932B97D4A143212688A437B4B1433ED
:101C20001A600289012A06D1784A143212680A43DE
:101C3000764B14331A60427B012A06D1734A1C3258
:101C400012680A43714B1C331A60704A126822F002
:101C500001026E4B1A6010BD10B50021837A01227B
:101C600002FA03F16A4A126842F00102684B1A60F4
:101C7000674A1C3212688A43654B1C331A60027B28
:101C8000CAB9634A0C3212688A43614B0C331A603A
:101C90004288C38842EA03435D4A4032847A42F86C
:101CA00034300288838842EA0343594A4032847AB6
:101CB00002EBC4025360027B012A19D1544A0C3250
:101CC00012680A43524B0C331A604288038842EA76
:101CD00003434F4A4032847A42F83430C2888388C2
:101CE00042EA03434A4A4032847A02EBC402536018
:101CF000C27A3AB9464A121D12688A43444B1B1DE8
:101D00001A6006E0424A121D12680A43404B1B1D2E
:101D10001A60028932B93E4A143212688A433C4B37
:101D200014331A600289012A06D1394A1432126822
:101D30000A43374B14331A60427B012A06D1344AD6
:101D40001C3212680A43324B1C331A60304A126844
:101D500022F001022E4B1A6010BD00218171C17169
:101D6000017241728172C1728170C170032101716F
:101D70000221417101210180704721B1026842F4C2
:101D80008032026003E0026822F480320260704711
:101D9000E1B1026842F0800202604FF4C272125850
:101DA00042F480734FF4C27213504FF4CA72125847
:101DB00042F480734FF4CA7213504FF4D272125827
:101DC00042F480734FF4D27213501BE0026822F089
:101DD000800202604FF4C272125822F480734FF4F2
:101DE000C27213504FF4CA72125822F480734FF427
:101DF000CA7213504FF4D272125822F480734FF407
:101E0000D27213507047000000640040006600402A
:101E1000006A004010B502460020936803F080631A
:101E2000B3F1806F00D110E0936803F00063B3F169
:101E3000006F01D1012008E0936803F08053B3F1F3
:101E4000805F01D1022000E00420042874D002F554
:101E5000C07303EB00131B6803F0010402F5C073A9
:101E600003EB00131C600B7A7BB94B7A0C8843EAB6
:101E7000445302F5C07404EB00142468234302F5B4
:101E8000C07404EB0014236010E00B7A4C6843EA42
:101E9000C4034C7A234302F5C07404EB0014246895
:101EA000234302F5C07404EB001423608B7A03F023
:101EB0000F038B7202F5C07303EB00135B6823F012
:101EC0000F0402F5C07303EB00135C6002F5C073EE
:101ED00003EB00135B688C7A234302F5C07404EBB8
:101EE000001463608B7B1C064B7B44EA03440B7B32
:101EF00044EA0323CC7A234302F5C07404EB0014B4
:101F0000A3608B7C1C064B7C44EA03440B7C44EAB4
:101F10000323CC7B234302F5C07404EB0014E3607D
:101F200002F5C07303EB00131B6843F0010402F5D4
:101F3000C07303EB00131C6010BD10B502460023F4
:101F400021B1012907D002290FD109E09068F94C8D
:101F500000EA04030BE09068F74C00EA040306E093
:101F60009068F64C00EA040301E0002300BF00BFC4
:101F7000F34C181BA34216D007DC83B16FF08060CE
:101F8000184470B1022818D111E0B0F5007F10D0CC
:101F9000EC4C204448B1B0F5003F0ED10BE00223D9
:101FA0000DE000230BE0002309E0002307E00123FC
:101FB00005E0012303E0012301E0002300BF00BF8F
:101FC000D8B210BD21B1012907D002290FD109E0F3
:101FD000826842F0800282600AE0826842F4004235
:101FE000826005E0826842F40002826000E000BF87
:101FF00000BF704710B500F5D87303EB01131B68E1
:1020000003F004031372137A53B900F5D87303EB8A
:1020100001131B6840F2FF7404EA5353136009E094
:1020200000F5D87303EB01131B686FF0604404EAFA
:10203000D303536000F5D87303EB01131B6803F05F
:102040000203537200F5D87303EB01135B6803F0CE
:102050000F03937200F5D87303EB01135B681B0A3F
:10206000D37400F5D87303EB01139B68D37200F5AA
:10207000D87303EB01139B681C0A147300F5D87323
:1020800003EB01139B681C0C547300F5D87303EB2E
:1020900001139B681B0E937300F5D87303EB0113B8
:1020A000DB68D37300F5D87303EB0113DB681C0AFC
:1020B000147400F5D87303EB0113DB681C0C547423
:1020C00000F5D87303EB0113DB681B0E937421B981
:1020D000C36843F02003C36003E0036943F02003B7
:1020E000036110BD21B9C26842F02002C26003E062
:1020F000026942F02002026170470246002019B9CD
:10210000D36803F0030006E0012903D1136903F04B
:10211000030000E00020704710B502460B46002087
:102120004FF6FF71BBB9146824F0020444F00104B7
:10213000146000E0491E546804F00304012C01D02F
:102140000029F7D1546804F00304012C01D00020C9
:1021500032E0012030E0012B13D1146824F0030495
:10216000146000E0491E546804F003040CB1002917
:10217000F8D1546804F003040CB100201CE00120E5
:102180001AE0022B17D1146824F0010444F0020471
:10219000146000E0491E546804F00304022C01D0CE
:1021A0000029F7D1546804F00304022C01D0002068
:1021B00002E0012000E0002010BD014600200A6876
:1021C00022F0010242F002020A604A6802F00302B1
:1021D000022A00D10120704701464FF6FF7200200D
:1021E0000B6823F002030B6000E0521E4B6803F003
:1021F0000203022B01D1002AF7D14B6803F002033E
:10220000022B00D001207047014600208A6902F0AD
:1022100070007047014600208A69100E7047014621
:1022200000208A69C2F3074070471AB143690B4323
:10223000436102E043698B434361704710B5024636
:10224000002001F4700343B19369C1F313042340E8
:102250000BB101202DE000202BE001F0807343B191
:102260005368C1F3130423400BB1012021E0002087
:102270001FE001F0006343B19368C1F313042340EE
:102280000BB1012015E0002013E001F0007343B111
:10229000D368C1F3130423400BB1012009E00020EF
:1022A00007E01369C1F3130423400BB1012000E0E0
:1022B000002010BD0022244B994202D100238361EB
:1022C00011E0C1F3130201F000730BB1C2600AE028
:1022D00001F080630BB1026105E001F000630BB116
:1022E000826000E0426070470246002002EA01037B
:1022F0000BB1012000E00020704770B504460D4688
:10230000002660692840002871D0B5F5807F68D02C
:102310001CDC082D41D006DC012D2CD0022D30D044
:10232000042D7ED133E0102D3DD0202D41D0402D05
:1023300077D144E00300000400030008000003100C
:10234000000100080001FFF77000F030B5F5004F04
:1023500061D009DCB5F5007F4AD0B5F5806F4DD06E
:10236000B5F5006F5DD150E0B5F5803F2DD0B5F5E6
:10237000003F56D12FE0A0685549FFF7B5FF06464C
:1023800051E0E0680321FFF7AFFF06464BE0E0684D
:102390000821FFF7A9FF064645E0E0681021FFF796
:1023A000A3FF06463FE020690321FFF79DFF064695
:1023B00039E020690821FFF797FF064633E02069DE
:1023C0001021FFF791FF06462DE060680821FFF716
:1023D0008BFF064627E060681021FFF785FF064661
:1023E00021E0A0690121FFF77FFF06461BE01BE00B
:1023F000A0690221FFF778FF064614E0A0690421D6
:10240000FFF772FF06460EE00BE0A0697021FFF7B0
:102410006BFF064607E060680421FFF765FF06468C
:1024200001E0002600BF00E00026304670BDB1F597
:10243000007F3AD00FDC202928D006DC01291CD0EF
:1024400004291DD0082940D11DE0402921D0B1F533
:10245000807F3AD126E0B1F5004F31D006DCB1F5EE
:10246000806F25D0B1F5006F2FD124E0B1F5803F0A
:1024700012D0B1F5003F28D111E0154A826025E065
:102480000822C26022E01022C2601FE0082202611E
:102490001CE01022026119E00822426016E01022BE
:1024A000426013E00422426010E0042242600DE02A
:1024B000042242600AE0002282610422426005E0B8
:1024C000002282610422426000E000BF00BF70472A
:1024D0000101010001684FF6FE7211400160002108
:1024E000016041608160C1609C49884208D19B497C
:1024F0000839496841F00F01984A083A5160BEE036
:1025000096491431884208D194490839496841F004
:10251000F001924A083A5160B1E09049283188426E
:1025200008D18E490839496841F470618B4A083AEC
:102530005160A4E089493C31884208D18749083973
:10254000496841F47041854A083A516097E08349EF
:102550005031884208D181490839496841F47021D5
:102560007E4A083A51608AE07C496431884208D149
:102570007A490839496841F47001784A083A51604B
:102580007DE076497831884208D174490839496834
:1025900041F07061714A083A516070E06F498C31C6
:1025A000884208D16D490839496841F070416B4A49
:1025B000083A516063E06A49884206D1011F096800
:1025C00041F00F01021F116059E065491431884242
:1025D00008D16349091F096841F0F001604A121FE0
:1025E00011604CE05E492831884208D15C49091FDE
:1025F000096841F470615A4A121F11603FE058495E
:102600003C31884208D15649091F096841F470419C
:10261000534A121F116032E051495031884208D1AB
:102620004F49091F096841F470214D4A121F11607A
:1026300025E04B496431884208D14949091F09689E
:1026400041F47001464A121F116018E04449783184
:10265000884208D14249091F096841F07061404A27
:10266000121F11600BE03E498C31884207D13C4972
:10267000091F096841F07041394A121F1160704703
:1026800010B50022026847F6F0739A430C6A8B6813
:1026900023430C6923434C6923438C692343CC694E
:1026A00023434C6A23438C6A23431A430260CB685A
:1026B00043600B6883604B68C36010BD00210160FC
:1026C00041608160C160016141618161C1610162FC
:1026D00041628162704721B1026842F001020260EA
:1026E00004E002684FF6FE731A40026070471AB1A8
:1026F00003680B43036002E003688B430360704789
:10270000416070470146486880B2704710B5024684
:10271000002000230B6803EA02040CB1012000E052
:10272000002010BD4860704710B50246002000230D
:102730000B6803EA02040CB1012000E0002010BD88
:102740004860704710B523B110610124C1F8A8405A
:1027500002E00024C1F8A84010BD000008000240BB
:102760000804024000204A490860091D0860091D4C
:102770000860091D086047484549143108607047E2
:10278000002143498279002A3AD00A461268036838
:102790009A430B461A600A1D126803689A430B1D80
:1027A0001A60027911440A6803681A430A60384AB9
:1027B0000832126803689A43354B08331A601A1DB1
:1027C000126803689A43324B0C331A604279102A1C
:1027D0000ED11A1F126803681A432D4B08331A6072
:1027E0001A1D126803681A43294B0C331A600DE056
:1027F0002749427911440A6803681A430A6005E0D0
:10280000027911440A6803689A430A6070470021FC
:10281000016001710C2141710021817170471C49D7
:102820001031096801431A4A10321160704701469D
:102830000020174A143212680A400AB1012000E051
:10284000002070471249143108607047014600208B
:1028500000220F4B1B6803EA01020D4B14331B6867
:102860000B4013B10AB1012000E000207047084975
:1028700014310860704706491831096801F00F01EA
:10288000034A18321160114609680143116070470C
:1028900000040140FFFF0F0001460020FB4A1068C2
:1028A00000F0F800084310607047F849096821F00B
:1028B0001001F64A11601146096801431160704722
:1028C000F248006840F04000F04908607047EF4966
:1028D000096821F08001ED4A116011460968014341
:1028E00011607047E949096943F6FF621140E74A00
:1028F000116111460969014311617047E448E349D8
:102900004860E44848607047E048006940F0800053
:10291000DE49086170470620DC49C96801F0010101
:1029200009B101201CE0D949C96801F0040109B1CD
:10293000032015E0D549C96801F0080109B1042058
:102940000EE0D249C96801F0100109B1052007E085
:10295000CE49C96801F0400109B1072000E0062016
:10296000704700B502460623FFF7D5FF034603E094
:10297000FFF7D1FF0346521E012B01D1002AF7D1E8
:1029800002B90A23184600BDC049C9680143BF4ABD
:10299000D160704730B5044606257C20FFF7F4FF70
:1029A0004FF43020FFF7DDFF0546062D17D1B7485D
:1029B000006940F00200B5490861084644610069B9
:1029C00040F0400008614FF43020FFF7CAFF054691
:1029D000AE48006943F6FD710840AC4908612846DD
:1029E00030BD10B506247C20FFF7CEFF4FF4302019
:1029F000FFF7B7FF0446062C16D1A448006940F043
:102A00000400A24908610846006940F040000861DE
:102A10004FF43020FFF7A5FF04469C48006943F6B9
:102A2000FB71084099490861204610BD0020974974
:102A3000C96901F0020109B1012000E000207047DE
:102A400000209249C96901F0004109B1012000E06C
:102A50000020704730B5904D0624FFF7F1FF10B10C
:102A60000824204630BDFFF7E1FF08B14FF47F0591
:102A70007C20FFF789FF4FF43020FFF772FF0446F8
:102A8000062C3ED182488149886082488860084689
:102A9000006940F0200008610846006940F04000ED
:102AA00008614FF43020FFF75CFF0446062C1FD16D
:102AB0007C20FFF769FF7548006943F6DF71084025
:102AC000724908610846006940F0100008617348C7
:102AD00005604FF40050FFF744FF04460A2C10D065
:102AE0006A48006943F6EF7108406849086108E0E8
:102AF0000A2C06D06548006943F6DF710840634937
:102B000008612046AEE778B504460D46062600204B
:102B1000009004F0030010B10926304678BD7C20F7
:102B2000FFF732FF4FF40050FFF71BFF0646062E5B
:102B300012D15648006940F00100544908612560EF
:102B40004FF40050FFF70DFF06465048006943F66A
:102B5000FE7108404D4908613046DFE770B5054613
:102B60000E4606247C20FFF70FFF4FF40050FFF7BE
:102B7000F8FE0446FFF764FF10B10824204670BD3C
:102B8000062C18D14248414988604248886008466E
:102B9000006940F0100008612E604FF40050FFF70C
:102BA000E0FE04460A2C06D03848006943F6EF716F
:102BB0000840364908612046E1E72DE9F043044624
:102BC0004FF6FF763746B046B1460625FFF738FF89
:102BD00018B108252846BDE8F083E443E6B2C4F303
:102BE0000727C4F307484FEA14697C20FFF7CCFE9F
:102BF0004FF40050FFF7B5FE0546062D35D12448A9
:102C000022498860234888600846006940F0100027
:102C10000861FF2E01D1FF2F09D046EA07401F4966
:102C2000083108604FF40050FFF79BFE0546B8F1ED
:102C3000FF0F02D1B9F1FF0F0ED0062D0CD17C2071
:102C4000FFF7A2FE48EA094014490C3108604FF42E
:102C50000050FFF786FE05460A2D06D00B48006996
:102C600043F6EF710840094908612846B3E770B59B
:102C7000054606240548C06900F01C008603FFF7DE
:102C8000DFFE68B10824204670BD0000002002402D
:102C900023016745AB89EFCDA500FFFF00F8FF1FBB
:102CA0007C20FFF771FE4FF43020FFF75AFE0446F8
:102CB000062C46D1AD48AE498860AE4888600846CB
:102CC000006940F0200008610846006940F04000BB
:102CD00008614FF43020FFF744FE0446062C27D14C
:102CE0007C20FFF751FEA248006943F6DF710840DF
:102CF0009F4908610846006940F01000086125B14D
:102D000006F47F009C49086003E046F0A5009A495C
:102D100008604FF43020FFF724FE04460A2C10D040
:102D20009348006943F6EF7108409149086108E053
:102D30000A2C06D08E48006943F6DF7108408C49A2
:102D400008612046A0E730B506248948C06900F034
:102D50001C008503FFF76AFE08B945F0A505FFF7DB
:102D60006FFE10B10824204630BD7C20FFF70CFE1A
:102D70004FF43020FFF7F5FD0446062C4CD17B487C
:102D80007B4988607B4888600846006940F02000E5
:102D900008610846006940F0400008614FF43020A7
:102DA000FFF7DFFD0446062C2DD17C20FFF7ECFD5C
:102DB0006F48006943F6DF7108406D4908610846B5
:102DC000006940F0100008616B4805604FF4302046
:102DD000FFF7C7FD0446062C0BD17C20FFF7D4FD7E
:102DE00066486549103108604FF43020FFF7B9FD9F
:102DF00004460A2C10D05E48006943F6EF71084083
:102E00005B49086108E00A2C06D05948006943F67E
:102E1000DF710840564908612046A5E72DE9F041D9
:102E200005460E461746DFF858810624FFF708FED0
:102E300018B108242046BDE8F081FFF7F7FD18B16E
:102E4000DFF83C81A8F1A50848484949886049480D
:102E500088607C20FFF798FD4FF43020FFF781FD5C
:102E60000446062C40D14248006940F02000404909
:102E700008610846006940F0400008614FF43020C6
:102E8000FFF76FFD0446062C25D17C20FFF77CFD63
:102E90003748006943F6DF71084035490861084644
:102EA000006940F01000086147F0F8003043284303
:102EB00048EA0040304908604FF40050FFF751FDE8
:102EC00004460A2C10D02A48006943F6EF710840E6
:102ED0002749086108E00A2C06D02548006943F616
:102EE000DF710840224908612046A4E72048C069F4
:102EF000C0F3820070471E48006A704700201C49DA
:102F0000096801F0200109B1012000E000207047AC
:102F100000201749096943F6FF62114009B10120F9
:102F200000E00020704729B1114A12690243104B9A
:102F30001A6104E00E4A126982430D4B1A61704710
:102F400001460020012908D1094AD26902F0010294
:102F50000AB1012008E0002006E0054AD2680A40D4
:102F60000AB1012000E000207047000023016745FE
:102F700000200240AB89EFCD00F8FF1FCC33FFFFEC
:102F8000A500F8FF10B50446F748844208D1012196
:102F9000042000F0B7FC0021042000F0B3FC46E060
:102FA000F248844208D10121082000F0ABFC002146
:102FB000082000F0A7FC3AE0ED48844208D1012146
:102FC000102000F09FFC0021102000F09BFC2EE060
:102FD000E848844208D10121202000F093FC002120
:102FE000202000F08FFC22E0E348844208D1012138
:102FF000402000F087FC0021402000F083FC16E018
:10300000DE48844208D10121802000F07BFC0021B1
:10301000802000F077FC0AE0D948844207D10121E2
:10302000801500F06FFC0021A01500F06BFC10BDB6
:1030300010B50121084600F065FC0021012000F0D8
:1030400061FC10BD2DE9F04102460025002600205C
:1030500000230024002791F803C00CF00F0591F81D
:1030600003C00CF0100CBCF1000F03D091F802C0AB
:103070004CEA050591F800C0BCF1000F31D014688E
:1030800000202BE04FF0010C0CFA00F3B1F800C067
:103090000CEA03069E4220D183004FF00F0C0CFA7D
:1030A00003F7BC4305FA03FC4CEA040491F803C09F
:1030B000BCF1280F06D14FF0010C0CFA00FCC2F84D
:1030C00014C00AE091F803C0BCF1480F05D14FF0DD
:1030D000010C0CFA00FCC2F810C0401C0828D1D327
:1030E0001460B1F800C0BCF1FF0F34DD546800205B
:1030F0002EE000F1080C4FF0010808FA0CF3B1F8CB
:1031000000C00CEA03069E4221D183004FF00F0C51
:103110000CFA03F7BC4305FA03FC4CEA040491F8EB
:1031200003C0BCF1280F05D100F1080C08FA0CF817
:10313000C2F8148091F803C0BCF1480F07D100F128
:10314000080C4FF0010808FA0CF8C2F81080401C77
:103150000828CED35460BDE8F0814FF6FF7101809E
:10316000012181700421C1707047024600209368DC
:103170000B400BB1012000E0002070470146886839
:1031800080B2704702460020D3680B400BB101208B
:1031900000E0002070470146C86880B270470161B6
:1031A000704701617047416170470AB1016100E0F9
:1031B00041617047C16070474FF480320A438261B9
:1031C00081618261826982697047024600206D4B8D
:1031D00018684FF68073184040EA02100843694BA4
:1031E000186070476849C8617047F0B50C46002305
:1031F000002600220025002100F00047B7F1004F13
:1032000002D1604FFA6919E000F08047B7F1804FB2
:1032100002D15C4F3A6A11E000F00057B7F1005F4D
:1032200002D1584F7A6A09E000F08057B7F1805F09
:1032300002D1544FBA6A01E0524F7A68C0F3034595
:1032400083B2524F0740B7F5401F0AD122F0706297
:103250004C4F7F6827F07067DFF828C1CCF8047006
:10326000D1E000F48017B7F5801F13D100F40017E8
:10327000B7F5001F03D10327AF403E0402E0032748
:1032800007FA05F6B24300F0E047002FE8D142F01C
:103290007062B8E000F08077B7F1807F47D100F02E
:1032A0000407042F29D100F00077B7F1007F16D171
:1032B000C0F340573F0103FA07F7BA433CB1314F1F
:1032C000796841F0010141F0706179609BE02D4F18
:1032D000796821F0010141F07061796093E0C0F3F9
:1032E00040573F0103FA07F7BA43264F796821F0A8
:1032F000010141F07061796085E043F00407C0F39B
:10330000405C4FEA0C1C07FA0CF7BA433CB11D4F66
:10331000796841F0010141F07061796073E0194F03
:10332000796821F0010141F0706179606BE000F093
:103330008067B7F1806F5BD100F00807082F3DD19F
:1033400000F00077B7F1007F2AD1C0F340573F016A
:1033500003FA07F7BA43DCB10A4F796841F0080174
:1033600041F0706179604EE000080140000C0140BE
:10337000001001400014014000180140001C0140F1
:103380000020014000000140000020420000307099
:10339000484F796821F0080141F07061796032E0AE
:1033A000C0F340573F0103FA07F7BA43414F79682A
:1033B00021F0080141F07061796024E043F00807D2
:1033C000C0F3405C4FEA0C1C07FA0CF7BA433CB15F
:1033D000384F796841F0080141F07061796012E07E
:1033E000344F796821F0080141F0706179600AE09A
:1033F000C0F340573F0103FA07F7BA4300F0E04734
:103400000FB942F070622CB1C0F340573F0103FA8C
:1034100007F73A4300F00047B7F1004F02D1254FBC
:10342000FA6119E000F08047B7F1804F02D1214FD7
:103430003A6211E000F00057B7F1005F02D11D4F72
:103440007A6209E000F08057B7F1805F02D1194F2E
:10345000BA6201E0174F7A60F0BD30B500228B07E9
:103460001C0F0F2303FA04F2124B08338C1053F88D
:10347000243093430F4C08348D1044F825302346F4
:103480008C1053F824308C07240F00FA04F42343E3
:10349000084C08348D1044F8253030BD0549496882
:1034A00021F40001034A516011464968014351600B
:1034B0007047000000000140F848006840F001003B
:1034C000F649086008464068F5490840F3494860F5
:1034D00008460068F3490840F0490860084600685B
:1034E00020F48020086008464068EF490840EB4916
:1034F00048604FF46050C86208634FF41F00886052
:103500007047E649096821F48031E44A11601146A8
:10351000096821F480211160B0F5803F03D0B0F537
:10352000802F0ED106E0DD49096841F48031DB4A85
:10353000116007E0D949096841F4A021D74A116018
:1035400000E000BF00BF704710B501460022002315
:1035500000204A11012A02D1D04C236806E0022A39
:1035600002D1CE4C236A01E0CC4C636A01F01F0209
:10357000012494401C400CB1012000E0002010BD4B
:1035800038B5002000900024002500BF3120FFF74F
:10359000DBFF05460098401C00900098B0F5004FF6
:1035A00001D0002DF2D03120FFF7CEFF08B1012469
:1035B00000E00024204638BD01460020B74A1068CC
:1035C00020F0F80040EAC10010607047B749086079
:1035D000704702460020B14B5868B54B184042EA8C
:1035E00001031843AD4B58607047B04908667047F7
:1035F00001460020A94A506820F0030008435060AB
:103600007047A648406800F00C0070470146002053
:10361000A24A506820F0F00008435060704701460D
:1036200000209E4A506820F4E060084350607047D4
:1036300001460020994A506820F4605040EAC100D9
:103640005060704729B1954A527A0243934B5A729F
:1036500004E0924A527A8243904B5A7270479349DF
:10366000D83108604108914AC2F8DC107047014621
:1036700000208A4AD06A20F000500843D062704788
:1036800001460020854AD06A20F0F8500843D062F5
:10369000704701460020814AD06A20F48010084318
:1036A000D0627047024600207C4BD86A20F48060CC
:1036B00020F4784010430843D86270470246002047
:1036C000764BD86A20F4F87009B1104302E0104339
:1036D00020F48070714BD8627047014600206F4A19
:1036E000D06A20F00F000843D062704702460020E5
:1036F0006A4B186B20F4003020F4784010430843E4
:103700001863704730B16549096B41F48021634A01
:10371000116305E06149096B21F480215F4A11635F
:10372000704700215D4A203211705C4A82F82010F7
:10373000012802D004280AD104E00121574A20328E
:10374000117005E00521554A2032117000E000BFDC
:1037500000BF70475749086070475049096A21F413
:1037600040714E4A11621146096A01431162704765
:103770005049443908607047F0B5002100BF00226D
:1037800000250024454E76684B4F06EA0702434E5B
:10379000766806F4803502F000661EB9022606EB54
:1037A000924204E04FF4F876C6EB9246721C1DB9C3
:1037B000424E02FB06F30BE0384E766806F4003604
:1037C0001EB13E4E02FB06F302E03D4E02FB06F345
:1037D000324E766806F00C0121B1042905D0082983
:1037E00008D105E0364E066007E0354E066004E07D
:1037F000036002E0324E066000BF00BF274E7668CD
:1038000006F0F00109092F4E745C0668E640466038
:10381000224E766806F4E061090A2A4E745C466816
:10382000E64086601D4E766806F46051C90A254E52
:10383000745C4668E640C660184EF66A06F00F01F2
:10384000214E745C4668B6FBF4F64661134EF66A88
:1038500006F4F871090901F00F061C4F37F81640FD
:10386000B3FBF4F60661F0BD29B10C4A526902437C
:103870000A4B5A6104E0094A52698243074B5A6174
:10388000704729B1054A92690243044B9A6104E0EA
:10389000024A92698243014B9A61704700100240CC
:1038A00000C0FFF8FFFFF6FEFFFF00F700004242F6
:1038B000FFFFC0F78004424200003C0800093D00C1
:1038C00000127A0028700108387001084870010859
:1038D00029B13A4AD2690243384BDA6104E0374AE7
:1038E000D2698243354BDA61704729B1334A926A13
:1038F0000243324B9A6204E0304A926A82432F4B71
:103900009A62704729B12D4AD26802432B4BDA6084
:1039100004E02A4AD2688243284BDA60704729B112
:10392000264A12690243254B1A6104E0234A1269B0
:103930008243224B1A61704730B12049096B41F034
:1039400040011E4A116305E01C49096B21F040014A
:103950001A4A116370471A49086070471949C864C8
:10396000704701460020154A506820F07040084317
:103970005060704701460020104A506820F0E06017
:1039800040EA0160506070470C48406A40F0807027
:103990000A4948620846406A20F0807048627047D1
:1039A00001460020054A92680A400AB1012000E061
:1039B00000207047014988727047000000100240E3
:1039C000400442420000424210B50446BE488442D0
:1039D00008D101218014FFF795FF0021A014FFF703
:1039E00091FF16E0B948844208D101210014FFF785
:1039F00096FF00212014FFF792FF0AE0B4488442AA
:103A000007D10121C013FFF78AFF0021E013FFF760
:103A100086FF10BD10B50022028802F441520B88C7
:103A20004C8823438C882343CC8823430C8923432D
:103A30004C8923438C892343CC8923431A43028036
:103A4000838B4FF2FF74234083830B8A038210BD64
:103A50002DE9F04F87B005460C464FF000090227CC
:103A60004FF000084FF0010B0026B246A88B4FF232
:103A700040010840A88302202884B5F81C90A06863
:103A8000022801D100BF38E0A08810B94FF0010B27
:103A900001E04FF0020B8D48854200D100E000BFED
:103AA00001A8FFF769FEDDF804A0E088B0F5007F0B
:103AB0000AD14FEA1A2000EB80004000A168B0FB59
:103AC000F1F0401D86B20BE04FEA4B10BAFBF0F06C
:103AD00000EB80004000A168B0FBF1F0401D86B211
:103AE0000A20B6FBF0F606F00108A6EB0800C0F3CA
:103AF0004F074FF6FF7000EA0828022F01DBFF2F67
:103B000002DD02274FF00008E08840EA0800384351
:103B10002884A088A1890843618808432188084334
:103B200040F4006040EA0909A5F81C9007B0BDE820
:103B3000F08F0021018041808180C180018141811D
:103B40008181C1810721018270470021018041806C
:103B50008180C1800221816000218181704721B173
:103B6000028842F04002028004E002884FF6BF73F0
:103B70001A400280704721B1828B42F480628283B6
:103B800004E0828B4FF6FF331A408283704730B5D2
:103B9000002400230C110125A540ABB21AB1858881
:103BA0001D43858002E085889D43858030BD1AB124
:103BB00083880B43838002E083888B438380704734
:103BC000818170470146888970474FF6FF629142B4
:103BD00004D0028842F48072028004E002884FF62A
:103BE000FF631A400280704721B1828842F00402CC
:103BF000828004E082884FF6FB731A40828070470F
:103C000002884FF2FF731A40028002880A43028042
:103C10007047018841F480510180704721B10288CA
:103C200042F40052028004E002884DF6FF731A400D
:103C30000280704702460020012901D0108B00E06D
:103C4000908A70470146088A7047B1F5804F04D1C9
:103C5000028842F48042028004E002884BF6FF733F
:103C60001A40028070470246002013890B400BB1B6
:103C7000012000E000207047CA4302817047F0B580
:103C80000246002000240023002501F00F07012632
:103C9000BE40B4B20B1101269E40B3B2968806EA2C
:103CA00003051689264016B10DB1012000E0002061
:103CB000F0BD10B5002201F00F040123A3409AB219
:103CC000D343038110BD00000030014000380040A4
:103CD000003C004010B50446FE48844208D1012152
:103CE000C014FFF70FFE0021E014FFF70BFE52E0B7
:103CF000B4F1804F08D101210846FFF710FE0021E2
:103D00000120FFF70CFE46E0F348844208D1012170
:103D10000220FFF704FE00210220FFF700FE3AE038
:103D2000EE48844208D101210420FFF7F8FD00216C
:103D30000420FFF7F4FD2EE0E948844208D1012178
:103D40000820FFF7ECFD00210820FFF7E8FD22E046
:103D5000E448844208D101211020FFF7E0FD002152
:103D60001020FFF7DCFD16E0DF48844208D1012176
:103D70002020FFF7D4FD00212020FFF7D0FD0AE02E
:103D8000DA48844207D101214014FFF7BBFD00212E
:103D90006014FFF7B7FD10BD0A4600210168CD4B46
:103DA00098420ED0D14B98420BD0B0F1804F08D042
:103DB000C94B984205D0C94B984202D0C84B984293
:103DC00003D121F0700153881943C64B984206D0A5
:103DD000C54B984203D021F44071D3881943016048
:103DE0009388838513880385BA4B984202D0BF4BD2
:103DF000984201D1137A0386012383820168B54B6F
:103E000098420ED0B94B98420BD0B0F1804F08D0F9
:103E1000B14B984205D0B14B984202D0B04B98427A
:103E200006D1537A13B141F4006101E021F400613D
:103E3000B0F1804F08D0A84B984205D0A74B9842CC
:103E400002D0A74B98420DD1937A13B141F480511F
:103E500001E021F48051D37A13B141F4005101E023
:103E600021F40051B0F1804F05D09B4B984202D015
:103E70009A4B984206D1137B13B141F4804101E083
:103E800021F48041934B98420BD0984B984208D034
:103E9000B0F1804F05D0904B984202D08F4B9842A2
:103EA00006D1537B13B141F4004101E021F40041FC
:103EB00001604168B0F1804F02D0884B984206D132
:103EC000937B13B141F4807101E021F48071416072
:103ED000704730B5002400220023056A25F0010553
:103EE0000562026A4368048B4FF68F752C404FF6CB
:103EF000FC752C400D882C4322F002020D892A43C8
:103F00004D882A43734DA84202D0784DA8420FD164
:103F100022F008024D892A4322F004028D882A43A8
:103F200023F4807323F400738D892B43CD892B43B5
:103F300043600483CD888586026230BD70B500245D
:103F400000220023056A25F010050562026A436815
:103F5000048B48F6FF752C404FF6FF452C400D882A
:103F60004FF6FF7606EA05252C4322F020020D8944
:103F700042EA05124D8842EA0512564DA84202D087
:103F80005A4DA84213D122F080024D8942EA05120F
:103F900022F040028D8842EA051223F4806323F464
:103FA00000638D8943EA8503CD8943EA8503436035
:103FB0000483CD880587026270BD30B500240022DD
:103FC0000023056A25F480750562026A4368848BC4
:103FD0004FF68F752C404FF6FC752C400D882C4306
:103FE00022F400720D8942EA05224D8842EA052238
:103FF000384DA84202D03D4DA84213D122F40062B0
:104000004D8942EA052222F480628D8842EA052227
:1040100023F4805323F400538D8943EA0513CD899B
:1040200043EA051343608483CD888587026230BDEF
:1040300070B5002200230024056A25F4805505622E
:10404000036A4468828B48F6FF752A404FF6FF45A5
:104050002A400D884FF6FF7606EA05252A4323F409
:1040600000530D8943EA05334D8843EA0533194D62
:10407000A84202D01D4DA84204D124F480448D8969
:1040800044EA851444608283CD88A0F840500362DE
:1040900070BD30B5002400220023056A25F4803568
:1040A0000562026A4368B0F854404FF68F752C40A1
:1040B0000D882C4322F400320D8942EA05424D88D6
:1040C00042EA0542034DA84202D0084DA84214D14D
:1040D0000EE00000002C01400004004000080040F9
:1040E000000C00400010004000140040003401406B
:1040F00023F480338D8943EA05234360A0F85440BC
:10410000CD88A0F85850026230BD70B5002400225E
:104110000023056A25F480150562026A4368B0F839
:10412000544048F6FF752C400D884FF6FF7606EA9E
:1041300005252C4322F400120D8942EA05524D88D0
:1041400042EA0552F84DA84202D0F84DA84204D1E7
:1041500023F480238D8943EA85234360A0F85440EB
:10416000CD88A0F85C50026270BD828B4FF2FF33A5
:104170001A408283828B4FF6FF7303EA01231A43AE
:1041800082837047F0B50C461546002200210026B8
:10419000076A27F480570762828B016A260340F67C
:1041A000FF473A404FF6FF7707EA05273A434FF6B5
:1041B000FF7707EA03373A43DB4FB8420ED0DB4FB5
:1041C000B8420BD0B0F1804F08D0D94FB84205D0DB
:1041D000D84FB84202D0D84FB84205D121F400518F
:1041E00046F48057394304E021F4005144F48057E9
:1041F000394382830162F0BD828B4FF6F3731A401C
:104200008283828B0A4382837047F0B50C46154641
:10421000002200210026076A27F480770762828B3C
:10422000016A26024FF60C773A404FF6FF7707EA0D
:1042300003172F433A43BC4FB8420ED0BB4FB8428E
:104240000BD0B0F1804F08D0B94FB84205D0B94F6C
:10425000B84202D0B84FB84205D121F4007146F4FB
:104260008077394304E021F4206144F480773943B6
:1042700082830162F0BD028B4FF2FF331A4002834A
:10428000028B4FF6FF7303EA01231A430283704740
:10429000F0B50C461546002200210026076A27F0DB
:1042A00010070762028B016A260140F6FF473A4079
:1042B0004FF6FF7707EA03373A434FF6FF7707EAEF
:1042C00005273A43984FB8420ED0984FB8420BD0CA
:1042D000B0F1804F08D0964FB84205D0954FB84204
:1042E00002D0954FB84205D121F0200146F01007C9
:1042F000394304E021F0A00144F010073943028360
:104300000162F0BD028B4FF6F3731A400283028BF9
:104310000A430283704770B50C46154600220021FF
:10432000066A26F001060662028B016A4FF60C76D9
:1043300032404FF6FF7606EA03162E4332437A4E9A
:10434000B0420ED0794EB0420BD0B0F1804F08D0C1
:10435000774EB04205D0774EB04202D0764EB04292
:1043600005D121F0020144F00106314304E021F0BF
:104370000A0144F0010631430283016270BD70B549
:1043800005460C46684885420ED0684885420BD0E9
:10439000B5F1804F08D06648854205D06548854212
:1043A00002D06548854200D100E000BF208850B9A6
:1043B0002389A28861882846FFF7ADFFE188284657
:1043C000FFF7A0FF25E0208804280AD12389A288CE
:1043D00061882846FFF75CFFE1882846FFF74BFF1E
:1043E00017E0208808280AD12389A28861882846F6
:1043F000FFF70BFFE1882846FFF7FEFE09E023895F
:10440000A28861882846FFF7BDFEE1882846FFF7AD
:10441000ACFE70BD2DE9F04105460C460026012793
:10442000608808B9022600E00026A088012801D192
:10443000022700E001272088A0B92389A28861888B
:104440002846FFF768FFE1882846FFF75BFF2389CE
:104450003A4631462846FFF71BFFE1882846FFF71A
:104460000AFF13E02389A28861882846FFF710FF1E
:10447000E1882846FFF7FFFE23893A463146284661
:10448000FFF749FFE1882846FFF73CFFBDE8F081D0
:1044900010B502460B884C8823438C882343CC8874
:1044A00023430C8923434C8923438C892343A2F85B
:1044B000443010688B7B13B120F4806001E040F43D
:1044C0008060CB7B13B140F4803001E020F4803079
:1044D0000B7C13B140F4003001E020F40030106098
:1044E00010BD4FF6FF71818000210180C1804180A5
:1044F000017241728172C17201734173817370479D
:104500000021018041808180C180018141818181C0
:10451000C1817047002101804180012181800021FB
:10452000C180018170470000002C0140003401402F
:104530000004004000080040000C00400021018001
:1045400041808180C180018141818181704721B199
:10455000026842F00102026003E0026822F00102F8
:104560000260704731B1B0F8442042F40042A0F834
:10457000442005E0B0F84420C2F30E02A0F8442025
:1045800070471AB183890B43838102E083898B438F
:10459000838170478182704741EA0203A0F8483066
:1045A00070471AB183890B43838102E083898B436F
:1045B0008381704701894FF6F8721140018170477D
:1045C0000A46002101894FF68F731940114301817A
:1045D000704730B504460D4629462046FFF7F0FFE8
:1045E000208940F00700208130BD2DE9F0410446CC
:1045F0000D4616461F46602D06D13B460122314628
:104600002046FFF745FE05E03B46012231462046A5
:10461000FFF781FE29462046FFF7D2FF208940F0B0
:1046200007002081BDE8F08130B50C4600210189EA
:10463000C9B24FF6FF7505EA032515432543294303
:10464000018130BD2DE9F04105460E4617469846DA
:10465000002443463A4631462846FFF7E5FF2C89B9
:104660004FF6F870044044F007044FF68F70044092
:1046700044F070042C81BDE8F081F0B504460D468D
:1046800016461F463B46324629462046FFF7CCFFDA
:10469000208940F480402081F0BD018582827047EE
:1046A0000A460021016821F0700111430160704742
:1046B000F0B50C4615461E46002100220023018954
:1046C000028B036A4FF6F877394021434FF6FC47D7
:1046D0003A4040F201173A4323F022034FF6FF77A6
:1046E00007EA06172F433B43018102830362F0BDB3
:1046F0000A460021018B4FF68F7319401143018345
:1047000070470A460021018B48F6FF7319404FF6A7
:10471000FF7303EA02231943018370470A4600210D
:10472000818B4FF68F7319401143818370470A467E
:104730000021818B48F6FF7319404FF6FF7303EA9F
:1047400002231943818370470A460021B0F85410B0
:104750004FF68F7319401143A0F8541070470A4662
:104760000021B0F8541048F6FF7319404FF6FF735C
:1047700003EA02231943A0F85410704721B10268DC
:1047800042F08002026003E0026822F080020260D0
:10479000704721B1426842F00402426003E042687F
:1047A00022F004024260704721B1426842F00802E0
:1047B000426003E0426822F008024260704721B183
:1047C000426842F00102426003E0426822F00102C6
:1047D000426070470A460021018B4FF6F77319407B
:1047E0001143018370470A460021018B4FF2FF738A
:1047F00019404FF6FF7303EA022319430183704700
:104800000A460021818B4FF6F773194011438183CB
:1048100070470A460021818B4FF2FF7319404FF613
:10482000FF7303EA02231943818370470A4600217C
:10483000B0F854104FF6F77319401143A0F8541014
:1048400070470A460021B0F854104FF2FF73194028
:104850004FF6FF7303EA02231943A0F85410704780
:104860000A460021018B4FF6FB7319401143018367
:1048700070470A460021018B4FF6FF3319404FF66F
:10488000FF7303EA02231943018370470A4600219C
:10489000818B4FF6FB7319401143818370470A46A1
:1048A0000021818B4FF6FF3319404FF6FF7303EA67
:1048B00002231943818370470A460021B0F854103F
:1048C0004FF6FB7319401143A0F8541070470A4685
:1048D0000021B0F854104FF6FF3319404FF6FF7324
:1048E00003EA02231943A0F8541070470A46002136
:1048F000018B4FF67F7319401143018370470A46BD
:104900000021018BC1F30E014FF6FF7303EA02236E
:104910001943018370470A460021818B4FF67F734C
:1049200019401143818370470A460021818BC1F3EE
:104930000E014FF6FF7303EA022319438183704788
:104940000A460021B0F854104FF67F731940114306
:10495000A0F8541070470A460021B0F85410C1F373
:104960000E014FF6FF7303EA02231943A0F8541017
:1049700070470A460021016A21F0020111430162D9
:1049800070470A460021016A21F0080111430162C3
:1049900070470A460021016A21F0200141EA021114
:1049A000016270470A460021016A21F0800141EA54
:1049B0000211016270470A460021016A21F4007168
:1049C00041EA0221016270470A460021016A21F48E
:1049D000006141EA0221016270470A460021016A32
:1049E00021F4005141EA0231016270470A46002178
:1049F000016A21F4003141EA0241016270470A462E
:104A00000021016A21F4001141EA0251016270475C
:104A100030B5002301248C40A3B2046A9C43046295
:104A2000046A02FA01F52C43046230BD30B500235C
:104A300004248C40A3B2046A9C430462046A02FA10
:104A400001F52C43046230BD70B5034600200024FC
:104A50001846183001258D40ACB21D6AE643B6B247
:104A600035401D6209B1082909D100EB61000568D4
:104A700025F0700505600568154305600EE00D1F03
:104A8000C5F34E052844056825F4E0450560056832
:104A90004FF6FF7606EA02263543056070BD21B168
:104AA000026842F00202026003E0026822F00202A1
:104AB0000260704721B1026842F00402026003E024
:104AC000026822F004020260704721B1426842F09D
:104AD0008002426003E0426822F080024260704738
:104AE000026822F00802026002680A43026070470E
:104AF000426822F07002426042680A434260704796
:104B000002894FF6F8731A40028102890A43028132
:104B1000704702894FF67F731A40028102890A4367
:104B20000281704781847047818570478186704714
:104B30000187704781877047A0F840107047A0F840
:104B400058107047A0F85C107047026822F4407259
:104B5000026002680A43026070470146888E70470F
:104B60000146088F70470146888F70470146B1F8AB
:104B7000400070470146B1F8580070470146B1F84F
:104B80005C0070470146888C70470146088D70476D
:104B90000146888D704702460020214B9A4202D080
:104BA000204B9A4206D1136A0B400BB1012013E04F
:104BB000002011E0B2F1804F08D01B4B9A4205D083
:104BC0001A4B9A4202D01A4B9A4205D1136A0B40F3
:104BD0000BB1012000E0002070470246002013695D
:104BE0000B400BB1012000E00020704702698A43AE
:104BF0000261704730B50246002000230024156989
:104C000005EA0103958905EA010413B10CB10120FD
:104C100000E0002030BD02698A4302617047000055
:104C2000002C014000340140000400400008004016
:104C3000000C004010B50446F248844209D101211D
:104C40008803FEF75FFE00214FF48040FEF75AFE16
:104C50004CE0ED48844209D101214804FEF75FFE93
:104C600000214FF40030FEF75AFE3FE0E74884424F
:104C700009D101218804FEF752FE00214FF4802063
:104C8000FEF74DFE32E0E248844209D10121C8041A
:104C9000FEF745FE00214FF40020FEF740FE25E020
:104CA000DC48844209D101210805FEF738FE0021C5
:104CB0004FF48010FEF733FE18E0D748844209D144
:104CC00001214804FEF71EFE00214FF40030FEF7DC
:104CD00019FE0BE0D148844208D101218804FEF777
:104CE00011FE00214FF48020FEF70CFE10BD2DE9CF
:104CF000F04786B005460F460024A24600BF00BF1D
:104D00000026B88900B100BF2E462C8A4CF6FF70F1
:104D10000440F88804432C82AC894EF6F31004401A
:104D2000B88839890843798908430443AC81AC8A3F
:104D30004FF6FF400440B8890443AC826846FEF752
:104D40001BFDB048864205D0B348864202D0B34826
:104D5000864202D1DDF80CA001E0DDF808A00AEBE4
:104D6000CA0000EB0A1039688900B0FBF1F8642032
:104D7000B8FBF0F004012009642101FB1089322006
:104D800000EB0910B0FBF1F000F00F0004432C81A0
:104D900006B0BDE8F0874FF4165101600021818014
:104DA000C18001810C21418100218181704710B5B2
:104DB00002460020108A4FF2FF0318400B884C88EF
:104DC00023438C882343CC8823431843108210BD8F
:104DD0000021018041808180C180704721B182899A
:104DE00042F40052828104E082894DF6FF731A403A
:104DF00082817047F0B5034600240026002500207C
:104E000040F66A17B94200D100BF1846C1F34214F8
:104E100001F01F06012707FA06F5012C01D10C301D
:104E200004E0022C01D1103000E014301AB1076800
:104E30002F43076002E00768AF430760F0BD1AB177
:104E4000838A0B43838202E0838A8B438382704789
:104E5000028A4FF6F0731A400282028A0A430282E3
:104E6000704782894FF2FF731A40828182890A4318
:104E70008281704721B1828942F00202828104E07E
:104E800082894FF6FD731A4082817047028A4FF67D
:104E9000DF731A400282028A0A430282704721B1FC
:104EA000028A42F48042028204E0028A4BF6FF73D7
:104EB0001A4002827047C1F308028280704701469F
:104EC0008888C0F308007047818941F00101818121
:104ED0007047028BD2B20283028B42EA0122028324
:104EE0007047028B02F47F420283028B0A430283E3
:104EF000704721B1828A42F02002828204E0828AD5
:104F00004FF6DF731A408282704721B1828A42F0E5
:104F10001002828204E0828A4FF6EF731A40828286
:104F2000704721B1828A42F00802828204E0828ABC
:104F30004FF6F7731A4082827047828A4FF6FB73EE
:104F40001A408282828A0A438282704721B1828A11
:104F500042F00202828204E0828A4FF6FD731A4018
:104F60008282704702460020B1F5007F00D100BF69
:104F700013880B400BB1012000E00020704701F4C2
:104F80000072B2F5007F00D100BFCA4302807047B3
:104F900070B50246002400230025002040F66A1662
:104FA000B14200D100BFC1F3421501F01F03012639
:104FB00006FA03F3012D02D19689334006E0022D53
:104FC00002D1168A334001E0968A33400C12012642
:104FD00006FA04F41688344013B10CB1012000E045
:104FE000002070BD10B50022002340F66A14A142D3
:104FF00000D100BF0A1201249440A3B2DC43048014
:1050000010BD00000038014000440040004800404E
:10501000004C00400050004000500140005401404E
:1050200010B50346002B01DD184600E05842002968
:1050300001DD0C4600E04C420444002A01DD10462C
:1050400000E05042204400B2FE4C20802046B0F9DF
:105050000000B0F5FA7F3FDD002B01DD184600E0CF
:1050600058428011F84C2080002901DD084600E0FC
:1050700048428011F54C2080002A01DD104600E0F6
:1050800050428011F24C2080EF48008830B9F1483E
:105090000088401C00B2EF4C208002E00020ED4C64
:1050A0002080EA48008830B9EB480088401C00B2F4
:1050B000E94C208002E00020E74C2080E448008892
:1050C00030B9E6480088401C00B2E44C20800AE079
:1050D0000020E24C208006E00020DE4C2080DE4CE8
:1050E0002080DE4C2080DE48B0F94800D94CB4F96D
:1050F0000040A04201DA002010BDD948B0F94800B4
:10510000D54CB4F90040A04201DA0020F4E7D448BD
:10511000B0F94800D14CB4F90040A04201DA0020B7
:10512000EAE70020E8E7CE48408A00287ED0CC4855
:10513000B0F90000CA49B1F90610401A002807DD8D
:10514000C748B0F90000C649B1F90610401A07E097
:10515000C348B0F90000C249B1F90610401A4042F4
:10516000801100286DD1BE48B0F90200BC49B1F9E8
:105170000810401A002807DDB948B0F90200B84904
:10518000B1F90810401A07E0B548B0F90200B44977
:10519000B1F90810401A40428011002851D1B0489E
:1051A000B0F90400AE49B1F90A10401A002807DD31
:1051B000AB48B0F90400AA49B1F90A10401A07E057
:1051C000A748B0F90400A649B1F90A10401A4042B4
:1051D000801150BBA348008E48BBA3480088052817
:1051E00026D0A2480088042822D09F48B0F9160093
:1051F0003C281DDD9E4800680A2819DD9C4800688F
:1052000010F10A0F14DA9648B0F84E00401C00B2B4
:105210009349A1F84E000846B0F94E00B1F9361096
:1052200088420EDB00208E4948860AE005E0FFE751
:1052300000208B49A1F84E0003E000208849A1F826
:105240004E008748B0F90600002803DD8448B0F915
:10525000060003E08248B0F906004042822802DDE1
:1052600006207F4948867E48B0F90800002803DD03
:105270007B48B0F9080003E07948B0F908004042E3
:10528000822802DD0620764948867548B0F90A0072
:10529000002803DD7248B0F90A0003E07048B0F955
:1052A0000A004042822802DD06206D494886704788
:1052B0006C48808F10B90420694948866948B0F964
:1052C00038006C4988420ED16B480068401C6A491E
:1052D000086008460068502805DB052060494886BC
:1052E00000206549086070476048B0F91A0000283E
:1052F00003DD5E48B0F91A0003E05C48B0F91A001B
:1053000040425849B1F92610884240DD5448808A0D
:10531000401C00B2524988825248B0F9300000283F
:1053200003DD5048B0F9300003E04E48B0F93000DA
:105330004042032815DA4A48B0F914004849B1F947
:10534000281001EB8101B0EB410F23DB4448008DB5
:1053500000EB8000400000B2414988820820488666
:1053600018E03F48B0F914003D49B1F9281001EBAD
:105370008101B0EB810F0DDB3948008D00EB80001F
:10538000800000B2364988820920488602E0002069
:105390003349888270473348B0F93000002803DD74
:1053A0003048B0F9300003E02E48B0F930004042F8
:1053B0002C49B1F92810884214DD2948C08A401CC4
:1053C00000B22749C8820846B0F91600B1F9621048
:1053D00088420ADB2248B0F862002149C8820A20CC
:1053E000488602E000201E49C882704710B54FF47D
:1053F00000722249224804F020F84FF4007221493B
:10540000214804F01AF84FF400722049204804F0B3
:1054100014F81A48008800B21E490880174880888E
:1054200000B248801548008900B288801348B0F85F
:10543000A80100B2A1F892001048B0F8AC0100B287
:105440002AE00000E0050020DA050020DC0500204D
:10545000DE050020D4050020D6050020D805002058
:1054600064180020D818002044180020680100208B
:105470004000002031F8FFFFE4050020981A0020CA
:1054800000B803089822002000C80308982A0020CA
:1054900000D803089A170020A1F89400FE48B0F83D
:1054A000D00100B2A1F8A200FB48B0F8D40100B2CC
:1054B000A1F8A400F848B0F8D80100B2A1F8A600FD
:1054C000F548B0F8DC0100B2A1F8A800F248B0F845
:1054D000700200B2F1498884EF48B0F8740200B25B
:1054E000C884ED48B0F8780200B20885EA48B0F800
:1054F0007C0200B24885E848B0F8800200B2888596
:10550000E548B0F8840200B2C885E348B0F89002DC
:1055100000B2C886E048B0F8980200B24887DE487A
:10552000B0F89C0200B28887DB48B0F8A00200B255
:10553000C887D948B0F8A40200B2A1F84000D64804
:10554000B0F8A80200B2A1F84200D348B0F8AC020B
:1055500000B2A1F84400D048B0F8B00200B2A1F8FF
:105560004600CD48B0F8B40200B2A1F84800CA48DD
:10557000B0F8B80200B2A1F84A00C748B0F8BC02BF
:1055800000B2A1F84C00C448B0F8E00200B2A1F8A3
:105590006200C148B0F8EC0200B2A1F86A00BE484F
:1055A000B0F8F40200B2A1F86E00BB48B0F83C03BA
:1055B00000B2BB494886B848B0F8480300B2C88476
:1055C000B548B0F84C0300B28884B348B0F8500333
:1055D00000B20885B048B0F8540300B2C880AE48A5
:1055E000B0F8580300B20881AB48B0F8680300B2C5
:1055F0008887AC48008800B2AB490880A9488088F9
:1056000000B2AA490880A748C068A649098900EBEA
:105610000140A7490860A3484069A249098A00EBF4
:105620000140A44908609F48008B00B2A24908804D
:105630009C48808B00B2A14908809A48B0F850007D
:1056400000B29F4908809748B0F8540000B29D49C5
:1056500008809448C06D9349B1F8581000EB0140A0
:10566000994908608F48406E8E49B1F8601000EB90
:105670000140964908608B48B0F8680000B2944930
:1056800008808848B0F86C0000B2924908808548CC
:10569000B0F8A00000B2904908808248B0F8A40099
:1056A00000B28E4908807F48D0F8AC007D49B1F83F
:1056B000A81000EB01408A4908607A48D0F8B4008D
:1056C0007849B1F8B01000EB014086490860754890
:1056D000B0F8B80000B2844908807248B0F8BC0045
:1056E00000B2824908806F48B0F8F00000B28049EB
:1056F00008806C48B0F8F40000B27E490880694820
:10570000D0F8FC006749B1F8F81000EB01407A4985
:1057100008606448D0F804016249B1F8001100EB58
:105720000140764908605F48B0F8080100B274494A
:1057300008805C48B0F80C0100B2724908805948F2
:10574000B0F8400100B2704908805648B0F84401F2
:1057500000B26E4908805348D0F84C015149B1F865
:10576000481100EB01406A4908604E48D0F85401E6
:105770004C49B1F8501100EB0140664908604948B6
:10578000B0F8580100B2644908804648B0F85C019E
:1057900000B2624908804348B0F8900100B2604905
:1057A00008804048B0F8940100B25E4908803D4846
:1057B000D0F89C013B49B1F8981100EB01405A49DF
:1057C00008603848D0F8A4013649B1F8A01100EBC0
:1057D0000140564908603348B0F8A80100B2544966
:1057E00008803048B0F8AC0100B2524908805248F5
:1057F00090ED000AB8EEC00ADFED500A80EE201AE4
:105800004F4880ED001A4C4890ED010AB8EEC00AEE
:10581000DFED4A0A80EE201A4A4880ED001A464819
:1058200090ED020AB8EEC00ADFED440A80EE201ABD
:10583000454880ED001A404890ED030AB8EEC00AD2
:10584000DFED3E0A80EE201A404880ED001A3A480B
:10585000008A00B23E4908803748808A00B23D493C
:10586000088010BD10B53C48B0F900003B490880E5
:105870003B48B0F9000048803A48B0F90000888001
:105880000020A1F88E00A1F890000D20A1F8920050
:1058900040F2465068E00000981A0020641800208A
:1058A000D818002098220020380500203A05002052
:1058B0003C0500204005002044050020460500204E
:1058C000480500204A0500204C0500205005002016
:1058D0005405002056050020580500205A050020D8
:1058E0005C0500206005002064050020660500209E
:1058F000680500206A0500206C0500207005002066
:105900007405002076050020880500208A05002007
:105910008C050020900500209405002096050020AD
:10592000780500207A0500207C05002080050020F5
:105930008405002086050020982A002000007A4473
:1059400024050020280500202C050020300500201B
:105950003405002036050020040000209A1700209E
:105960000600002008000020A1F894004FF4FA700F
:10597000A1F896004FF60C60A1F898000020A1F85D
:105980009A00A1F89C00A1F89E001E20A1F8A0009A
:105990000120A1F8A2004FF49060A1F8A40001201A
:1059A000A1F8A6004FF47A70A1F8A8000020FE49E3
:1059B0000882488288820883C861086264208884DB
:1059C0001420C88408854FF49650488541F23B5016
:1059D00088850820C8850020088648861E20C8863D
:1059E000002008874FF4AF50488740F6B8308887CA
:1059F00041F26800C88740F6B830A1F840004FF483
:105A0000AF70A1F842006420A1F84400A1F846005C
:105A10001E20A1F848006420A1F84A000020A1F847
:105A20004C00A1F84E00A1F85000A1F85200A1F8D6
:105A30005400A1F85600A1F858000120A1F85C001C
:105A40000020A1F85A000520A1F862001E20A1F84C
:105A50006600A1F868000020A1F86A000620A1F8FD
:105A60006C000520A1F86E000020A1F87000CF495D
:105A70000880488088804FF42F70488100208881FA
:105A800008614861052048860020C86108624863B3
:105A90004BF2E1100887002048874FF47A70C884E1
:105AA00040F6C410888440F6AC5008850120C880B8
:105AB00008819FEDBF0ABF4880ED000A9FEDBE0A36
:105AC000BE4880ED000A9FEDBC0ABD4880ED000A8B
:105AD0009FEDB70ABB4880ED000A0020BA49088054
